:020000041000EA
:1000000000B5324B212058609868022188439860DF
:10001000D860186158612E4B002199600221596106
:100020000121F02299502B49196001219960352056
:1000300000F044F80222904214D00621196600F024
:1000400034F8196E01211966002018661A6600F04E
:100050002CF8196E196E196E052000F02FF8012189
:100060000842F9D1002199601B49196000215960AB
:100070001A491B48016001219960EB211966A021F2
:10008000196600F012F800219960164914480160C1
:100090000121996001BC002800D000471248134993
:1000A000086003C880F30888084703B5996A0420EC
:1000B0000142FBD001200142F8D103BD02B5186610
:1000C0001866FFF7F2FF186E186E02BD00000240BE
:1000D000000000180000070000035F00212200005C
:1000E000F4000018222000A00001001008ED00E03C
:1000F00000000000000000000000000074B24E7A12
:1001000000200420F7010010CB010010CD010010E9
:10011000C9010010C9010010C9010010C901001077
:10012000C9010010C9010010C9010010CF01001061
:10013000C9010010C9010010D1010010D301001045
:10014000C1010010C1010010C1010010C101001067
:10015000C1010010C1010010C1010010C101001057
:10016000C1010010C1010010C1010010C101001047
:10017000C1010010C1010010C1010010C101001037
:10018000C1010010C1010010C1010010C101001027
:10019000C1010010C1010010C1010010C101001017
:1001A000C1010010C1010010C1010010C101001007
:1001B000C1010010C1010010C1010010C1010010F7
:1001C000EFF30580103800BE00BE00BE00BE00BECA
:1001D00000BE00BEF2EB8871688805108C8805109F
:1001E0003802001090A31AE71E481F49086006C88D
:1001F00081F3088810471D480068002801D019487D
:10020000F3E70DA40ECC002902D000F012F8F9E7B4
:100210001749184A002000E001C19142FCD116495B
:100220008847164988471649884700BEFDE701C937
:1002300001C29A42FBD370478C880510E000002071
:10024000200D0020CC9405100000042000000420A4
:10025000CC940510001004200010042000000000C1
:10026000704700000000000008ED00E0000000D032
:10027000200D00209CF00220F14F00100D0700100F
:10028000B14F0010F8B5C04606480749091A8B104F
:10029000C90FC91810B5491003D0044B002B00D06A
:1002A000984710BD200D0020200D00200000000008
:1002B000054B10B5002B03D00449054800E000BFF2
:1002C000FFF7E2FF10BDC04600000000D0C90020CB
:1002D00038AC0110002905D0034B0A681A60034BA3
:1002E00001221A707047C046801600208AF0022052
:1002F000704710B5052800D010BD0121043802F068
:100300007DFFFEE730B58BB0140027236B4400223D
:100310001A701F2C00D91F2401AD2200280003F001
:100320002DFD00232B55194928001AF093FA0028B7
:100330000AD027236B4401221A7027236B441B78B1
:10034000002B19D10BB030BD114928001AF082FAE8
:100350000028EED10F4901A81AF07CFA002804D039
:1003600027236B4402221A70E7E70B4901A81AF011
:1003700071FA0028F4D1E0E7084B18680023002246
:100380002721694408F098FEDCE7C04638AC01102C
:1003900044AC011050AC01105CAC0110B8C9002095
:1003A00010B500220021FF2000F076FB10BD10B533
:1003B0000022FF21002000F06FFB10BD10B582B0BD
:1003C0000400111E1DD1124804F036FFFFF7EFFFA5
:1003D000104A11490023200001F0B0F90F49012310
:1003E0000193002300930022200001F00BF90C4B35
:1003F000186800280AD000230022002108F05CFEC3
:1004000004E0084804F048FFFFF7CAFF02B010BD3F
:1004100068AC011005030010F10200108CAC011053
:1004200028F002209CAC011010B50022FF21FF2013
:1004300000F032FB10BD10B500220021002000F0BA
:100440002BFB10BD30B58BB015F0CEFF002825D1A9
:1004500015F0AAFE2C4804F0EFFE2C492C482D4B39
:100460002D4A15F063FF002821D02C4804F0E4FE4B
:10047000FFF796FF002009F069FCFA20800009F0E0
:1004800081FEFFF7D8FF19F0C5FC254A254926480B
:1004900000230BF037FF19F0C7FC11E0234804F0EC
:1004A000CBFEFFF77DFF002009F050FCD0E720488D
:1004B00004F0C2FEFFF77BFFDFE7642009F062FE75
:1004C0001C4B1B78002BF8D001F044F91A4D286022
:1004D00003AC1C220021200003F04AFC174B0393BD
:1004E0003C23A38119F096FC154B0E492868019412
:1004F00000220092134A01F035F919F095FCFA2018
:10050000800009F03FFEFAE7D4AC0110E8AC01101E
:10051000F8AC0110307500000600400000AD01107D
:10052000D50200108016002040AD0110C0AC0110B3
:1005300020AD01108AF00220BCC9002054AD01108A
:10054000BD0300105B07000070B500240CE0FFF74E
:100550002EFF96256D00280009F014FEFFF76BFFB3
:10056000280009F00FFE0134022CF0DD70BD000000
:1005700030B599B0028843888588C0880D4904AC9D
:1005800001900095200004F0E9FC19F043FC2000E4
:100590001AF022FA83B20849084A1068002203922E
:1005A000029201920092220000F090FF19F03CFCB0
:1005B00019B030BD60AD011080AD0110BCC9002084
:1005C00010B584B00121434B1868494209F040F846
:1005D000414804F031FEFFF7B7FF00F0E3F800F008
:1005E000FDF800F06DF95DE001340004020C3B48B9
:1005F000210004F051FE642009F0C4FD042C08DC45
:1006000000F014F983B2013B9BB2622BECD90024B9
:10061000F1E7334804F010FEFFF706FFFA20400030
:1006200009F0B0FD02AC0E236B4403AA0A21694411
:10063000200000F089F921886288A388294804F005
:100640002BFE2000FFF794FF274804F0F5FD274C10
:100650002068002108F052FC2068254A6B46D91D0D
:1006600008F04EFF00282AD06B4607331B78012B79
:100670001FD0204804F0E0FDFFF792FE1E4804F072
:10068000DBFDFA20C00009F07DFD00F0CFF87728EF
:100690001BDD1A4804F0D0FDFFF7CDFEFA208000E4
:1006A00009F070FD164804F0C7FDFFF7C4FE0024F2
:1006B000A4E7144804F0C0FDFFF779FEDEE7124816
:1006C00004F0BAFDFFF76CFED8E7C82009F05AFD28
:1006D000DBE7C04628F0022090AD0110D4AD011038
:1006E000F8AD011018AE011038AE0110B8C90020E5
:1006F00060EA00006CAE011098AE0110BCAE0110B3
:10070000B4AD011058AE011084AE011030B583B005
:1007100004F08EFD052001F01DFBD0231B062022D6
:100720009A6200220121052001F040FA164B0122B5
:100730000421052001F0B6FA00F074F9002201212D
:10074000012008F059FC114B186003220021012000
:1007500008F052FC0E4B1860802464010D490E48CD
:1007600000250195022300930023220009F0B2FA2C
:100770000A490B480195012300930023220009F048
:10078000A9FA09F04BFBFEE7F3020010B8C90020FC
:1007900028F00220E0AE011045040010ECAE01107C
:1007A000C105001010B50B480B4907F0E1FD03210E
:1007B000002001F0E1F90321012001F0DDF9002220
:1007C0000121002001F0F2F900220121012001F0B5
:1007D000EDF910BDD00C0020A086010000B585B059
:1007E0000F226A44C02313700F48BF3B0093292196
:1007F00007F0E8FD012802D0002005B000BD0A483E
:100800000023009301330E226A44292107F0E6FDFC
:10081000012806D10E236B441878EE384342584124
:10082000EBE70020E9E7C046D00C002070B586B0A9
:1008300005AA80235B001380204800230093023325
:10084000292107F0BFFD0026632E1CDC0E226A441E
:1008500014231370194C133B00932921200007F037
:10086000B1FD0F256D440023009301332A00292197
:10087000200007F0B3FD2B78DB0704D4052002F03D
:1008800075FA0136E0E713226A441E2313700B4CFD
:100890001D3B00932921200007F094FD04AD0023A7
:1008A000009302332A002921200007F097FD2878C1
:1008B00000026B78184306B070BDC046D00C002013
:1008C00030B587B01D4C1E49200007F051FD0321B3
:1008D000022001F051F90321032001F04DF900221B
:1008E0000121022001F062F900220121032001F020
:1008F0005DF905AA134B13800025009502232921D9
:10090000200007F05FFD04AA9023FF3313800095B9
:100910008E3BFF3B2921200007F054FD03AAE02372
:100920009B001380009502232921200007F04AFD37
:10093000322002F01BFA07B030BDC046C80C0020C0
:10094000A086010081F6FFFFF0B5CE46474680B590
:1009500087B080460F001600994617226A449423F8
:100960001370154D933B00932921280007F02AFDB1
:1009700003AC00230093083322002921280007F04C
:100980002DFD62782378120213434A461380E278E1
:10099000A37812021343424613806279237912022C
:1009A00013433B80E279A37912021343338007B0EB
:1009B000C0BCB946B046F0BDC80C002083001B186F
:1009C0009B00094884466344100000290AD01004A3
:1009D000064A1968484010408022520194466344F8
:1009E00018607047024AF4E70C0005400000FFFF62
:1009F000FFFF000010B503000A001F2807D84108B8
:100A00000720084001211940FFF7D8FF10BD410819
:100A1000032008400830F5E710B5494389B2FFF7D5
:100A2000E9FF10BD30B585B001AA174B31CB31C2FB
:100A3000002417E06D0803202840083082001118B8
:100A40008B0012498C4663441149196112189300B6
:100A500062469A18116801228A430E498C46634403
:100A60001A600134022C0CDCA30001AA9D58042159
:100A7000280001F081F81F2DDCD86D0807202840E0
:100A8000DCE705B030BDC046F4FD011000000540B4
:100A9000FFFF00000010054070B50D0014000100BC
:100AA0000D20FFF7B9FF29000B20FFF7B5FF21004C
:100AB0000C20FFF7B1FF70BDC288531C9BB2C380EE
:100AC000002B01D10232C280C08870470388C2184F
:100AD000117101339BB20380FF2B01D900230380E6
:100AE00070474388C0180430704703884088181A3C
:100AF00080235B02984201D30130FF3080B27047FF
:100B0000002800D00060704710B5FFF7DFFF10BD70
:100B100070B505000C00090AFFF7D8FFE1B2280004
:100B2000FFF7D4FF70BDF8B507000E0015000024D4
:100B300005E0315D3800FFF7C9FF0134A4B2AC42D3
:100B4000F7D3F8BDF8B506000F001500110AFFF73E
:100B5000BDFFE9B23000FFF7B9FF002405E0395DC1
:100B60003000FFF7B3FF0134A4B2AC42F7D3F8BDB5
:100B700070B5050004A8007805AC2488D6000822CA
:100B8000324009010A4352B2590006230B401A436E
:100B900052B2012101401143C9B22800FFF7B4FF4E
:100BA00007E000231943C9B22800FFF7ADFFE409AD
:100BB00006D07F2121407F2CF3D980235B42F1E7CF
:100BC00070BD10B54368002B04D08068022902D89C
:100BD0000021984710BD0D214942FAE770B5061E65
:100BE0000AD000248C4211D2200130180568A84296
:100BF00005D00134E4B2F5E7054801F0E1F8002141
:100C000001604360049B8360828100E0002070BD2E
:100C1000F8AE011010B54C1CA4B200280ED001345F
:100C2000A4B2C909FBD1FFF760FF80235B001B1A48
:100C3000E00FDA17A3425041C0B210BD014801F0E5
:100C4000BFF8C0461CAF011010B5002803D00368E0
:100C50000022002407E00C4801F0B2F8DC89A21859
:100C600012B21C001B68002BF8D11E2A06DC1E23C2
:100C70009B1ACB81002C04D0216010BD034801F0E9
:100C80009FF80160F9E7C04640AF011064AF011062
:100C900010B5FF2909D84388591889B24180FF2926
:100CA00002D90139FF39418010BD014801F088F8AF
:100CB0009CAF011070B506000D00002801D004683B
:100CC00006E00F4801F07CF82000FFF719FF3468B8
:100CD000002D13D0002C11D0E3899D420CD3DBB240
:100CE000ED1AEDB2236833606368002BECD003216A
:100CF000A06849429847E7E75B1BE38170BDC046A7
:100D0000DCAF011070B5051E01D0006806E0064892
:100D100001F056F80468FFF7F3FE20000028F9D12F
:100D200000232B6070BDC04604B0011010B5041E36
:100D300009D000680022002808D083898B4205D0A2
:100D400002000068F7E70B4801F03AF800280CD0E1
:100D5000002A0BD0036813600368002B03D0DA89E4
:100D6000C1895218DA810023036010BD0368236033
:100D7000F2E7C04628B0011010B5002801D00023CA
:100D800007E0054801F01CF81A01821812600133CF
:100D9000DBB28B42F8D310BD48B00110F0B583B080
:100DA00005000E00FFF7A1FE6A8880235B009B1AF6
:100DB00098420DDA6423F75A0300002F21D0002B4C
:100DC0001FD0BB420BD28342A44164421F0007E004
:100DD00080235B009B1A9BB26422B75AEDE7002484
:100DE0002800FFF77EFE0100002C0CD003233A0000
:100DF00030000FF01BFE002803D1002C05D1002885
:100E00002CD003B0F0BD0123F1E739002800FFF733
:100E10003FFF6423F75A3C002800FFF766FE01906D
:100E2000698880235B005B1A984213DA02009442BF
:100E300006DB019A9A420FDB80277F007F1ABFB240
:100E40002800FFF74EFE010001233A0030000FF0AA
:100E5000EDFDD4E71A00EAE70700F1E739002800C2
:100E6000FFF716FF300010F059FBCAE710B5837A80
:100E7000032B01D0002010BDEC30FFF78FFFF9E706
:100E800070B50500837A032B01D0002070BD0023CC
:100E90000380838002E02000FFF732FE2800183034
:100EA0000021FFF743FF041E06D06368002BF2D039
:100EB000A06800219847EEE7E9682800EC30FFF7CA
:100EC0006DFFE2E7F0B5C64600B582B00400884683
:100ED00017001E000500EC3502212800FFF79AFEDE
:100EE000002816D002230193002300933300002230
:100EF00041462800FFF73CFE39002800FFF708FEB6
:100F0000E1682800FFF74AFF002002B080BCB84625
:100F1000F0BD01204042F8E7F0B5DE4657464E46A8
:100F20004546E0B583B0040015001E006C23C35C89
:100F30001F09806E81422DD801928A18802A00DD17
:100F4000EAE0022F29D00D2F00D1F2E0032F3ED08E
:100F5000012D00D805E10C9B1B781B020C9A5278DE
:100F60001A4300D100E10B2F00D900E10123BB405F
:100F7000A92109010B4200D0B3E0590600D5A9E030
:100F80009B0600D4F6E0012306212000FFF79AFF1C
:100F90000027C3E07B4800F013FFA37A022B01D0A7
:100FA0000027BBE0012D00D8C0E00C9B5F78002F2C
:100FB00000D0B3E0002323800333A3726369002BC6
:100FC00000D1ABE021693A0020009847A6E05B0819
:100FD0001F40B846904228D02F0000239946002F8A
:100FE00002D1002E00D099E04B46DB199D4200D281
:100FF000B0E0256E002D07D00C994944734273412F
:10100000DBB2E06D3A00A847002E00D0A5E04346D1
:10101000002B00D1A3E0012B5AD005212289002307
:101020002000FFF74FFF002778E08020401A002FB4
:1010300035D002214B1C019A9A4200DC7BE00C9BCC
:101040001B781B020C9A52789B189BB28A1CAA1A16
:10105000934200DD72E0421A023A934200D970E0F6
:101060000C9A911C9A1C92B2914617004246002A93
:1010700017D00222BA18824266D84246002A12D0FD
:10108000BA1C954263D30C9AD25D12020C98C01917
:101090004078121822811A1D92B2914605E0002173
:1010A000C8E70122E6E700222281CA189246CB5CFB
:1010B0009B46002313704B46EF1ABFB2636E002BA2
:1010C00002D0BA19E06D984753465A461A7086E71F
:1010D0000421A3E7002307212000FFF7F3FE0027E8
:1010E0001CE0200018301100FFF720FE041E44D041
:1010F000092F0AD04368002B02D08068002198474E
:101100002000FFF7FDFC002708E0022D37D90C9BDB
:101110009978FFF756FDF3E780277F00380003B08A
:10112000F0BCBB46B246A946A046F0BD80277F0072
:10113000F4E70027F2E780277F00EFE780277F00B2
:10114000ECE780277F00E9E780277F00E6E780273C
:101150007F00E3E780277F00E0E70027DEE7002746
:10116000DCE780277F00D9E780277F00D6E780274C
:101170007F00D3E780277F00D0E70027CEE78027D6
:101180007F00CBE76CB0011070B504000D000028A3
:1011900029D0C068002811D000210CF05BFDE06868
:1011A00000210CF073FDE06800210CF061FDE068A7
:1011B0000DF024F9002819D10023E3602000183035
:1011C000FFF7A0FD0B48210010F0ACFCA37A002B28
:1011D00008D00023A3726369002B03D021692A0081
:1011E0002000984770BD044800F0EAFDE0680CF06C
:1011F00027FFE1E71D12001090B0011010B5002884
:1012000006D00023C36080214900FFF7BDFF10BD59
:10121000014800F0D5FDC046ACB00110F0B583B078
:10122000041E06D0837A022B06D0032B17D003B0FE
:10123000F0BD274800F0C4FD038801339BB2038052
:101240009A00D318632B05DC22492200224810F0B3
:1012500003FCECE70221FF31FFF796FFE7E71830C8
:101260000521FFF727FD6388002BEDD0A28801320E
:1012700092B2A28091008A1859085B189A420CDC3D
:101280000125238801339BB223809A00D3186288FA
:10129000934209DA002DCAD0D6E70221FF3120009F
:1012A000FFF772FF0025ECE72600EC360021300046
:1012B000FFF7B0FC0028EDD000270197009700232E
:1012C00000220C213000FFF753FC2780E2E7C046E4
:1012D000CCB001101D12001088130000F8B50400F6
:1012E0000E00151E01D02800F8BD002787660D49A5
:1012F00030000CF0AFFC0C4930000CF0B9FC0B498D
:10130000022230000CF0D0FC0223A3720849220014
:10131000084810F0A1FB2780E1682000EC30FFF7BF
:101320003DFDE0E74D140010810E00106D0E001021
:101330001D12001088130000F0B5D6464F464646F1
:10134000C0B582B006008A4600239946002498461C
:10135000002754E0B36E9C421BD233196C331B78C8
:1013600099460134E4B2012C49D97F234A461340FF
:10137000A11ECA00521A934042461A4390464B4659
:101380001B063CD4131E13D0A218B36ED31A984672
:1013900035E07D1CADB2390050460CF0E3F98146D2
:1013A000B36E5A1CB266F3186C3318702F00D8E76E
:1013B00000250095002221003000FFF7ADFDB56645
:1013C00000241CE031006C31091900972B005046B5
:1013D0000CF0F2F8B36E5B19B3667F19BFB24346E7
:1013E0005B1B984600902A0021003000FFF794FD17
:1013F000002824D14346002B01D1B3660024534674
:101400001D89BD421AD9012CA4D94B461B06A1D473
:10141000ED1BADB2454501D343469DB28022121B60
:1014200092B2954200D91500B36E7F2BCAD95346AC
:101430005B89D91B8D42C5DD8DB2C3E7002002B0A8
:10144000E0BCBA46B146A846F0BD0000F0B583B096
:101450000400080015001E00002C1AD0E3688B421F
:101460001AD1002A1BD0002E20D111890CF098FB34
:1014700029002000FFF760FF0190070028000BF013
:1014800051FE002F18D16388002B12D00023A380B7
:101490000FE00C4800F094FC0B4800F091FC802118
:1014A00049002000FFF770FE002602E010000BF05C
:1014B00039FE300003B0F0BD01992000FFF764FE53
:1014C000E1E7C046F0B0011014B10110F0B5DE46FE
:1014D00057464E464546E0B587B005000E000492DB
:1014E000039310AB1B78994611AB1B789A460028E2
:1014F00059D000295AD0837A002B00D170E008001F
:1015000019F06AFA3C4B98426DD883B29B460404AA
:10151000240C0234039B9C4664444B46002B48D168
:101520000023984680235B029C425FD2A4B228002D
:101530001C30139B0093129B42460421FFF74EFB85
:101540000590002855D02F00EC3721003800FFF718
:1015500061FB002833D00194534600934B46002290
:1015600003213800FFF704FB5A4631003800FFF72B
:10157000E9FA4B46002B28D1049B002B02D0039B99
:10158000002B27D1280018300599FFF75DFBE9688B
:101590003800FFF703FC002007B0F0BCBB46B246A2
:1015A000A946A046F0BD154800F00AFC144800F01A
:1015B00007FC02342800FFF77FFA8046B2E705985F
:1015C000FFF79EFA01204042E6E741463800FFF768
:1015D0009FFAD1E71A0004993800FFF7A4FAD1E77F
:1015E0000B204042D8E710204042D5E7102040426F
:1015F000D2E701204042CFE7FDFF00003CB10110DF
:101600005CB10110F0B5DE4657464E464546E0B5A2
:1016100085B005000F00039298460EAB40CB1B78B7
:101620009A4600285BD000295CD0080019F0D4F954
:101630003E4B98426ED883B29B460404240C04347B
:1016400053465A1E9341E41880235B029C4264D2A5
:10165000A4B2039B022B48D8AB7A002B60D02800A1
:10166000FFF72AFA814628001C30009643464A4676
:101670000421FFF7B3FA8046002854D02E00EC3640
:1016800021003000FFF7C6FA002831D05346002B66
:1016900034D008210194002300930133002230004C
:1016A000FFF766FA49463000FFF732FA5A4639002A
:1016B0003000FFF747FA5346002B21D1280018309D
:1016C0004146FFF7C1FAE9683000FFF767FB0020E9
:1016D00005B0F0BCBB46B246A946A046F0BD1448D2
:1016E00000F06EFB134800F06BFB134800F068FB42
:1016F0004046FFF705FA01204042E9E70A21C9E721
:10170000039B191C022B00D90221C9B23000FFF73C
:10171000FBF9D3E710204042DAE710204042D7E738
:101720000B204042D4E701204042D1E7FDFF0000FA
:1017300078B1011098B10110B8B1011010B50028AE
:1017400003D002664166C36510BD014800F038FB56
:10175000D0B1011010B5F821490001200BF078F943
:1017600010BD0000F0B5DE4657464E464546E0B592
:1017700089B00400029103921D00139E002800D13D
:10178000D5E0029B002B00D1D4E0002E00D1D4E0A4
:101790003368002B00D1D3E0877A002F00D02DE1F1
:1017A000036E9B46436E9A46C36D9846F8225200DC
:1017B000002102F0DDFA5B4623665346636643462A
:1017C000E365129B23616561B389638020001C304F
:1017D0000421FFF7D1FA3069002800D1B3E0736922
:1017E0009846002B00D1B2E0727ED200182313403D
:1017F00004271F43FFB2B27E002A02D024221343E3
:10180000DFB219F0E9F80500FF2800D9FAE0002856
:1018100000D1FBE0C3B20593337E9A46002B07D17B
:10182000404619F0D9F8FF2800D9F3E0C3B29A4630
:10183000FF231D400E35554480235B029D4200D39B
:10184000ECE0ADB27068002800D184E080235B42F8
:101850001F43FFB219F0C0F880225202904200D319
:10186000E0E0002800D1E1E083B2069302350004F5
:10187000000C4519954200D3DCE0ADB2B0680028F9
:101880006CD040231F43FFB219F0A6F88022520209
:10189000904200D3D2E0002800D1D3E083B2079376
:1018A00002350004000C4519954200D3CEE0ADB2DC
:1018B00002233B43DBB20493306819F08DF8802398
:1018C0005B02984200D3C5E082B291460235000423
:1018D000000C45199D4200D3C0E0ADB2EC22934606
:1018E000A34429005846FFF795F9002800D1B9E034
:1018F00000200CF0DFFCE060002800D1B6E0210001
:101900000CF0A4F95B49E06800220CF0C7F88046AF
:10191000002826D0E0680CF093FB0023E3604046EB
:1019200009B0F0BCBB46B246A946A046F0BD52483D
:1019300000F046FA514800F043FA514800F040FAEE
:10194000504800F03DFABA4605970A257AE7BA46AC
:1019500005970A2576E7002306938FE70023079370
:10196000A6E7494BE068039A02990CF0DBF9804640
:101970000028CFD14549E0680CF088F90123A37213
:10198000019500230093002201215846FFF7F0F84B
:101990003F4904225846FFF7D5F804215846FFF77F
:1019A000B3F804995846FFF7AFF8B1895846FFF7E6
:1019B000AFF831684A465846FFF7C4F87B070CD4A5
:1019C0006B461B7C5BB2002B12DB7F06A7D5B16890
:1019D000079A5846FFF7B6F8A1E73169059A5846C5
:1019E000FFF7B0F8716952465846FFF7ABF8E7E7E2
:1019F0007168069A5846FFF7A5F8E6E70A235B42A6
:101A000098468CE706235B42984688E706235B42AC
:101A1000984684E706235B42984680E706235B42AC
:101A200098467CE706235B42984678E706235B42AC
:101A3000984674E706235B42984670E706235B42AC
:101A400098466CE706235B42984668E706235B42AC
:101A5000984664E706235B42984660E706235B42AC
:101A600098465CE701235B42984658E701235B42B6
:101A7000984654E74C0E0210F8B101101CB2011048
:101A800044B2011070B20110DD120010FD110010FF
:101A9000A4B20110F8B5CE46474680B5D0231B0648
:101AA0001F68214BBA00D3589846002F03D01F4B14
:101AB000994600262AE01E4B9946FAE7EB4012E0D1
:101AC00024090135002C20D033000833AB421CD947
:101AD0000F23190021402342F2D0164BBA00D358ED
:101AE000202DEBD40023DB07EAD407222A40920002
:101AF000EB08080090403C339B000F4A9850434647
:101B0000002BDDD02800C047DAE708361D2E06D8A6
:101B1000F30808339B004A469C583500D2E7C0BC06
:101B2000B946B046F8BDC046941600203041014089
:101B300000410140BCEC00200040014030B50724CA
:101B40000440A400C008A14004003C34A400094D96
:101B5000615180001B18002A05D080229201944612
:101B60006344196030BDC0229201944663441960F9
:101B7000F8E7C0460040014010B58300084A9A18B3
:101B800014684022544080322240064CA4466344EC
:101B90001A60C000044B9C466044416010BDC046C2
:101BA00004C0014004D001400040014080000C4BC3
:101BB0009C46604400290ED00823002A0DD0042240
:101BC0001343026853400C22134080225201944672
:101BD0006044036070470023EFE70022F0E7C0464F
:101BE00004C00140002906D08000064B9C4660449A
:101BF0000223036070478000034B9C46604402232D
:101C00000360F7E704E0014004F0014070B506000E
:101C10000D00141E0BD1D0231B061B68002B11D006
:101C2000094B220029003000FFF788FF70BD0D200E
:101C300000F050FA0028EED1044B054A0548BD21BA
:101C400003F0BAF9044BECE730410140ACB20110AB
:101C500058FE0110D8B201100041014070B50400D7
:101C6000D0231B061D680D4BAA00D358002B0AD0A9
:101C7000002803D0094BAD00EC5070BD08490D2081
:101C800000F06EFBF6E70028F7D0044BAD00E850FB
:101C9000034900220D2000F057FAEEE794160020C9
:101CA000951A001070B505000E0014001800FFF71B
:101CB000D5FF220031002800FFF7A8FF002C00D13B
:101CC00070BD01210D2000F0DDF9F9E770B5D023DA
:101CD0001B061B68094C9D002C59204207D1074D5B
:101CE0009B0004435C510D2000F02EFA70BD044BA4
:101CF000044A0548DB2103F05FF9C046BCEC002034
:101D000020B3011024FE0110D8B2011010B5040058
:101D1000D0231B061A680B4B9200D35818420BD0E5
:101D20000D2000F01DFBD0231B061B6805499B00FE
:101D30005A58A2435A5010BD034B044A0448EF219D
:101D400003F03AF9BCEC00204CB3011000FE011086
:101D5000D8B2011010B501238340D022120693623D
:101D600093610521FFF708FF10BD000010B5802327
:101D7000DB05186803051B0D0B4A934207D10B4B7B
:101D8000034080229201934207D1000F10BD084BFF
:101D9000084A0948132103F00FF9084B054A064881
:101DA000142103F009F9C0462709000000F0FF0FD5
:101DB00078B3011070FE01109CB30110E4B3011060
:101DC0000FB400B583B0084803F036FA049B002B2B
:101DD00007D005A90191180003F03EFA034803F06B
:101DE0002BFA012003F0E2F8F8B3011028F90110F2
:101DF00010B50148FFF7E4FF08B40110EFF31080BD
:101E000072B6034B1B68002BFBD0BFF35F8F70478C
:101E10002C0100D0BFF35F8F024B00221A6080F3C9
:101E2000108870472C0100D0F8B506000C00150092
:101E3000FFF7E4FFE308F718F15C072222400123D3
:101E400093400B4205D1DBB20B433B70FFF7E2FF3F
:101E5000F8BD21002800FFF7B3FFF0B583B00600FE
:101E6000019114001F00FFF7C9FF00E00134BC42DC
:101E70000CD8E308F518F35C0721214001228A40C1
:101E80001A42F3D1D2B21A432A7001E0012464420B
:101E9000FFF7C0FF002C02DB200003B0F0BD019B68
:101EA000002BF9D00898FFF78BFF000070B50500F4
:101EB0000C00FFF7A3FFE308EE18EA5C07212140BE
:101EC00001238B40134204D09A433270FFF7A2FFE4
:101ED00070BD034B034A0448332103F06DF8C0463C
:101EE00018B4011084FE011038B40110054A1078AE
:101EF000431CDBB21370172B02D9130010221A7087
:101F00007047C046080C002010B582B00100054C97
:101F1000054B00931F2318222000FFF79EFF02B0FD
:101F200010BDC046A416002080B40110002307E0B5
:101F3000054A9A189200BFF35F8F002111600133A8
:101F40001F2BF5D97047C04640000034074B9B68F3
:101F5000103080001950BFF35F8FBFF35F8F044BC9
:101F60000021196082F310887047C04600ED00E040
:101F7000240100D00048704700E400E010B5FFF7EE
:101F8000F9FF002302E0034A04C00133072BFAD90A
:101F900010BDC0468080808010B50388DA0A1C2AF4
:101FA00005D15B055B1502335B00C01810BD034B08
:101FB000034A8E210348490002F0FEFF9CB4011041
:101FC000E0FE0110B4B4011010B5091A0B1F0A4A43
:101FD00088180A4A904208D8C90706D45B105B05E6
:101FE0005B0D0748184380B210BD064B064A872197
:101FF0000648490002F0E0FFFC070000FE0F000069
:1020000000E0FFFFFCB40110D4FE0110B4B40110D5
:1020100010B5091A04394A08090B08D14905490DB8
:10202000064B0B430380064B1343438010BD054B07
:10203000054A8B210548490002F0BEFF00F0FFFF72
:1020400000F8FFFF2CB50110B0FE0110B4B4011070
:1020500001238340034A10681840431E9841C0B2D0
:102060007047C04600E100E0002A05D0044BC022C2
:102070005200995019607047014A8023D150FAE705
:1020800000E100E010B50A001F2303400121994040
:102090004009FFF7E9FF10BD01238340014A1360A7
:1020A0007047C04600E200E0024B9B6810308000A1
:1020B000C058704700ED00E010B5FFF7F5FF044B86
:1020C000C31A00202F229A424041C0B210BDC04620
:1020D0000C0C002010B5FFF7E7FF002806D0044BDA
:1020E000984201D0012010BD0020FCE70020FAE753
:1020F000C101001070B504000D00EFF3108672B638
:102100000C4B1B68002BFBD0BFF35F8F2000FFF749
:10211000CBFF094B984201D0A84205D132002900DB
:102120002000FFF713FF70BD044B054A0548ED2161
:1021300002F042FF240100D0C10100103CB50110A3
:1021400008FF0110B4B40110F0B5DE4657464E4604
:102150004546E0B589B0814601911500EFF3108B3B
:1021600072B66F4B1B68002BFBD0BFF35F8F6D4BBC
:1021700000269E57002E40DB7400A419A4006A4874
:1021800024180622A256674B1A70684B9A684B4671
:1021900010339B00D35898461B1A2F2B3BD9644B06
:1021A000984531D105AF634B3B80634973009A4634
:1021B000981980005C4B984640440230FFF704FFBA
:1021C00078805E4BBB80FF23BB71FD71019B079341
:1021D000330053449B00434407CF07C301231C43F0
:1021E000A0465A4641464846FFF7B0FE09B0F0BC4B
:1021F000BB46B246A946A046F0BD514B514ABE214E
:102200005148490002F0D8FE504B4E4A84214E48B6
:10221000FF3102F0D1FE012342469A439246101A42
:102220000C2101F0A3F900290FD153460027DA79D8
:10223000AA4212D90621595600290DDB4A0052182C
:10224000920039491F008B18F1E7414B3D4ACA21E2
:102250003D48490002F0B0FE1F00002F2ED005AB14
:102260003C4A1A80813A5A800623FB560293002B7F
:1022700017DA394805AB9A469880029A9A71DD714F
:10228000019A0792381D2100FFF79EFEB880BE71AB
:10229000254B7200921992009B18524613CA13C321
:1022A0009FE7381DFFF778FE01007000801980005D
:1022B0001D4BC0180430FFF787FEDBE705AF1D4B51
:1022C0003B801D49730002939B199B00164A904660
:1022D0001A0042440392901CFFF776FE7880039A1E
:1022E000101D5146FFF770FEB8801C4B5246414608
:1022F000521A524153431B0DBB71FD71019A079253
:10230000029B9B199B00434407CF07C3114B5246C6
:102310001380813B538001231C43A04661E7C046E4
:10232000240100D08FF002200C0C002000ED00E012
:10233000C101001000A1FFFF3C0C002001BDFFFF08
:1023400074B50110F0FE0110B4B401109CB5011079
:10235000C4B501100148000001BD0000AAAA000098
:10236000F0B5CE46474680B583B006000D00EFF3CA
:10237000108872B64F4B1B68002BFBD0BFF35F8FEA
:102380004D4B9A6834001034A300D7584B4B9F42F2
:1023900007D0AF4200D18AE00197494BFB1A2F2B9F
:1023A00009D9424639003000FFF7D0FD03B0C0BC68
:1023B000B946B046F0BD3000FFF74AFE8146002125
:1023C0003000FFF75FFEBFF35F8FEFF30581002959
:1023D00001D08C4211D10123019C9C430020A368B1
:1023E0009D4211D00622A256002A0CDB53009B18F6
:1023F0009B00334A2000D418F1E7324B324A33486D
:10240000334902F0D9FD20009D4249D10625655788
:10241000002D2BDB2A4B6A00521992009B189A68F8
:10242000A260DA79E2719B795BB2A371002B0FDABB
:102430002848A080224B6A00521992009B18264A15
:1024400011789971157049463000FFF71BFEA8E717
:102450006800401980001A4BC0180430FFF79CFD3B
:102460000100231D1800FFF7AFFDE2E7002912D19C
:1024700000280ED0FF238371184B838016490B78F8
:10248000A3710F4A164BA41A644163431B0D0B70D2
:10249000D9E70A4FF2E71349201DFFF7B9FDD2E74C
:1024A000114B094A91210948890002F085FD034F2B
:1024B00077E7C046240100D000ED00E0C101001024
:1024C0000C0C002048B60110C0FE0110B4B401107D
:1024D0000202000001BD00008FF0022001BDFFFFDD
:1024E000AAAA0000460C00207CB6011070B50500B9
:1024F0000C00FFF73FFDAB089B00C21811680323D7
:102500002B40DB00FF20984081439C402143116019
:1025100070BD0000F8B5012202432C4BD31A2F2BBB
:1025200028D8EFF30583002B2AD0EFF3108472B67E
:10253000274909680029FBD0BFF35F8F234D254948
:102540000600761B76417143090D4DB22249896818
:102550009B00C958914219D00021032930D81B4B48
:102560004A00521892009B189B795BB2AB421DD077
:102570000131F2E7194B1A4A1A481B4902F01CFDB7
:102580001A4B174A17481A4902F016FD124A926868
:102590001849D150184B1A7882711D70BFF35F8FA4
:1025A0000B4B00221A6084F31088F8BD074B4A00D9
:1025B0005618B6009E19FF27B771104AB280E9E796
:1025C0000F4B074A07480F4902F0F6FC0C0C00209D
:1025D000240100D0AAAA000000ED00E084B601109A
:1025E00094FE0110B4B401107F020000ACB60110DB
:1025F00082020000C10100108FF0022001BDFFFF28
:10260000B8B601109302000010B582B00100074C6B
:10261000074B0093052300222000FFF71EFC002833
:1026200001DB1F23181A02B010BDC0469AF0022029
:10263000C0B60110024B9C4661448900016070479E
:102640004000003410B50400FFF750FC01002000EA
:10265000FFF7F0FF01235B426360BFF35F8F10BDA4
:1026600010B50400FFF742FC01002000FFF7E2FF75
:1026700001235B42636000232372BFF35F8F10BDB1
:1026800010B50D4C09E00D4B0D4A0E481A2102F011
:1026900093FC2000FFF7D6FF08340B4B9C4209D275
:1026A0002368002BF5D0012BEDD12000FFF7D8FFD8
:1026B0000C34F2E710BDC046100D0020DCB601104E
:1026C00048FF0110FCB60110200D0020034B9C4672
:1026D000614489000160BFF35F8F704740000034A0
:1026E00010B504000120FFF70FFC01002000FFF7E8
:1026F000EDFF10BD30B5846A151B0B1D9B001B58E8
:102700001B1B9D4204D3046A01238B40234202D148
:10271000043189000A5030BD0004084370470000AE
:10272000F0B5DE4657464E464546E0B587B0EFF376
:10273000058303221A409246AE4B9200D7583B784D
:10274000534507D10123524693409946AA4B4A4626
:102750001A6025E1A94BAA4AAA48922102F02CFC52
:102760007A6973009B19DB009046984443469C6845
:10277000DD68A54800F0BCFB001BA941002900DA78
:1027800016E1002D74DB43461B699B469F4B9B451E
:102790004FD00823F85E4346598889B2FFF7BCFF43
:1027A00043465969D847029003910299039A0B0056
:1027B000100013435CD013000A00002847DAA41A63
:1027C0009D41009401954346009C019D9C60DD6005
:1027D0000021595E002900DAEAE078694B005B18B5
:1027E000DB00C3189A68DB68A41A9D41002D00DA4B
:1027F000DEE039813D000835844604912A000597C2
:10280000B346009E019F049B002B2ADB0023D45E6D
:1028100063001B19DB0063449C68DD6830003900ED
:10282000001BA94100291CDB1A000021595E0491FC
:10283000E9E743465B699B461B6958469847002871
:1028400016D05B461A685B6802920393ADE76E4848
:1028500000F04EFB029B039C1B184C41009301941B
:10286000B1E70499059F5E464346198016809FE0B4
:10287000434600229B5E3B813A69EFF3108372B6B8
:1028800011680029FCD0BFF35F8F02217A5E4146B8
:102890000A807E803A69BFF35F8F0021116083F365
:1028A000108885E03969EFF3108372B60A68002A50
:1028B000FCD0BFF35F8FB88800B201225242BA80C9
:1028C0003A69BFF35F8F0021116083F31088050020
:1028D000BC461CE0049300229A5E002A0EDB049B97
:1028E0000021595E4B005B18DB0063449868D9688F
:1028F00034003D00241A8D41002DEBDA04995D4629
:10290000009B9C4644460D800023E55E2280002DFE
:1029100012DB634658696C006419E4000419A66868
:10292000E7686146083108229A5EAB460491634627
:102930000093A0468446D0E767463EE00023BB7183
:10294000390008310823F85E0EE001246442E517DF
:102950009460D56008243B5F834204D00E80082435
:102960003B5F138038813000431C29D07C694300D1
:102970001B18DB00E218E65E53881BB2002BE4DB79
:102980001100F0E722002B0051461F48FFF7B2FE6E
:102990001D4800F0ADFA241A8D41002D22DC1FD015
:1029A000194B4A465A630823FE5E002E00DBD7E629
:1029B000BB881BB2002B00DB74E7BB79002BBDD1B9
:1029C0000823FA5E002A0DDB796953009B18DB00AF
:1029D000CB189C68DD68631CD4D16B1CD8D0D1E7C0
:1029E000002CDDD040BF07B0F0BCBB46B246A946C4
:1029F000A046F0BDF0C900203C70054090B7011022
:102A000074FF0110BCB701100040054021270010E1
:102A100070B504000D0011000126AE4006622800CA
:102A2000FFF768FB01212800FFF72CFB024B9C46B7
:102A30006444266070BDC04638200000F8B5CE461C
:102A4000474680B50600894690461F00C160FFF7E3
:102A50004DFA154B9C46604480003061434633700C
:102A6000BBB27381D02212061278727001225242D8
:102A70003281B2809B187380002406E0621E736965
:102A800065002D19ED005A530134BC42F6D3074BB3
:102A900042469200D650064A41464846FFF7B8FFE4
:102AA000C0BCB946B046F8BD40000034F0C90020B3
:102AB0002127001010B5084B1A68EFF3108172B689
:102AC0001368002BFCD0BFF35F8F034805F0B6FE00
:102AD0000020002110BDC046E0EE002010B5064BDE
:102AE0001B69002B01D0044810BD044B044A054863
:102AF000652102F061FAC046540C0020FCB70110B9
:102B00005CFF0110BCB70110F8B504000569EFF3D4
:102B1000108072B629680029FCD0BFF35F8F0221B4
:102B2000665E656971008919C9006D18002E02DBA7
:102B30000027E95F61802169BFF35F8F00270F6085
:102B400080F31088002E2CDB0699296107996961B2
:102B5000AA60EB606B8801335B04590C002B00D139
:102B6000012169803000FFF7D7FD2169EFF3108361
:102B700072B60A68002AFCD0BFF35F8FA2882A8051
:102B8000A6802269BFF35F8F0021116083F3108854
:102B9000E368217801228A4003498C4663441A6025
:102BA000F8BD01204042FBE73C20000070B582B038
:102BB000060014001D0008AB1B78002B07D100F0A5
:102BC000ADF922002B00121A8B41002B0ADB079B68
:102BD0000193069B009322002B003000FFF794FF27
:102BE00002B070BD0020FBE7F0B5C64600B584B06A
:102BF0000500884616001F000AAB1C78FFF76EFF21
:102C00000294019700962A004346FFF7CFFF04B0D5
:102C100080BCB846F0BD000030B504000A144389FA
:102C20009A422EDA406953009B18DB00C3182569CD
:102C3000EFF3108272B628680028FCD0BFF35F8FD4
:102C4000588885B20904090C884212D000202369F3
:102C5000BFF35F8F0021196082F31088002811D024
:102C6000E368217801228A4007498C4663441A6050
:102C700008E00649294389B259800123A371012044
:102C8000E5E7002030BDC0463C2000000080FFFF8B
:102C900010B50400FFF722FF2100FFF7BDFF10BDB4
:102CA00040787047F0B583B006000F00EFF305835E
:102CB000002B1AD196246442E517A4197D418D4258
:102CC00002D803D1844201D90024002500F026F95E
:102CD00022002B00121A8B41002B0BDC08D0300095
:102CE000390000F023F903B0F0BD1348FFF768F88E
:102CF000002AF4D0114A0023009320002900FFF796
:102D000073FF00280DDAEAE70D4B1A68EFF3108124
:102D100072B61368002BFCD0BFF35F8F084805F034
:102D200029FD084B5B6A9D42EED80649896AA1429B
:102D3000D5D29D42D3D1E7E720B80110B52A0010C3
:102D4000E0EE00200040054070B504000D0000F0EA
:102D5000E5F800196941002902DBFFF7A3FF70BD08
:102D6000012040420049F8E7FFFFFF7F10B5FA223B
:102D700092000023002100F08FFFFFF7E5FF10BD58
:102D8000F0B5CE46474680B583B005000C00EFF3A2
:102D90000583002B15D03F4B5B6A8B4209D33D4A1C
:102DA000926A82420BD28B4201D0012002E00020C5
:102DB00000E0002003B0C0BCB946B046F0BD012021
:102DC000F8E7FFF78BFEC3689946037898462E0014
:102DD0002700484600F08CF802000B00B61A9F410D
:102DE000434604339B004A469B581B1A0022BA42B2
:102DF0000FDC0CD020BF274B5B6A9C422DD8254AA4
:102E0000926AAA422BD29C4225D00120D2E7B3423B
:102E1000F0D9214A0023009328002100FFF7E4FEA7
:102E200000281EDD1B4B5B6A9C4205D8194A926A3A
:102E3000AA4202D29C4200D120BFFFF729FF154BC6
:102E40005B6A9C4221D8134A926AAA421FD29C42D2
:102E500019D00120AEE70020ACE70020AAE701204E
:102E6000A8E70C4B5B6A9C4209D80A4A926AAA42BC
:102E700007D29C4201D001209CE700209AE7002065
:102E800098E7012096E7002094E7002092E70120D0
:102E900090E7C04600400540B52A00100048704742
:102EA0000040054010B50B4B1B69002B04D00A48AD
:102EB0000A21FFF7BFFB10BDFFF7F0FF040003215D
:102EC00000F00CF80348102303222100FFF7B6FDA1
:102ED000EDE7C046540C0020E0EE002010B5024A99
:102EE0000248FEF7A1FF10BD70B80110A81600201F
:102EF0000200436A906A1900536A9942FAD17047F6
:102F0000416A00E0416A9942FCD300E0416A99427B
:102F100002D1816A9142F9D37047000010B502488E
:102F2000FFF7E6FF10BDC0460040054010B50200A7
:102F30000B000248FFF7E4FF10BDC046004005400B
:102F4000F8B5D646474680B506000D0017009846EE
:102F500044002418A400294B9C4664446368089AE2
:102F6000934200D26260331FDBB29A46012B2ED906
:102F700080221201C0239B01E3181A60204BB2008B
:102F8000D158002907D0586900F0F0FA0130430009
:102F90001B18033BFDD27F0123685F40E0233B40C9
:102FA00080225201A21813605346012B1AD98023A4
:102FB0009B01E318802212011A60089B6360104B8A
:102FC000B6004246F250C0BCBA46B046F8BD012D2C
:102FD000CED10322C0239B01E3181A60A368DB074C
:102FE000FCD5D8E72168694003230B401360A36830
:102FF0000122AA401A42FAD0D9E7C0460080004018
:10300000B0160020F0B583B005000E0017001800C0
:10301000089900F0ABFA0300089A140200943A00F1
:1030200031002800FFF78CFF03B0F0BD10B582B06F
:10303000802464000094FFF783FF02B010BD0000FD
:10304000014B8000C0587047B0160020F0B5C6464E
:1030500000B504000E0017001D00374800F086FA86
:103060008046364BFA18364B9A4239D80100380060
:1030700000F07CFA0200103A98235B009A4235D89F
:103080006B1E062B38D8069B013B062B34D83F0914
:10309000474537D32D04069B1B031D432368002B94
:1030A00036DB284B9C4244D00C2201239340264A15
:1030B0001360264A1360264A1268190091430A1EBB
:1030C000F9D12660A060234BE31821321A602268F0
:1030D000002AFCDAE56008221A6080BCB846F0BD20
:1030E0001D4B1E4A1E48112101F066FF1D4B1B4A55
:1030F0001B48192101F060FF1B4B184A18481C217E
:1031000001F05AFF194B154A1548232101F054FFCD
:1031100022683F231340B342C3D1A3681B051B0D94
:103120008342BED1E368EE22D2021340AB42B8D153
:10313000D3E70D22B9E7C046001BB70080E84BD3A8
:1031400080F8A93200C0024000E0004000F00040DA
:1031500008C000400430000094B8011098FF01102E
:10316000E4B801102CB9011048B9011094B901104C
:10317000024B1A68024B5A607047C046BC290020B7
:103180000080054010B5174B8022D2051A60164BFF
:10319000164A1A6000290AD0154BE022D2041A60A0
:1031A000002809D1124B802212061A6010BD0D4B67
:1031B000E022D2041A60F3E743011B1A9B0018189F
:1031C00000010C4B186080235B04984202D3094B2A
:1031D000094A1A60FFF7CCFF054B8022D2051A601E
:1031E000E4E7C04600B0054008200140FCFF0100B4
:1031F00000A00540BC290020FFFFFF0010B5034BD5
:10320000034ADA61FFF7BEFF10BDC04600800540EB
:103210002131B76A10B5030010000C4A8024E40580
:103220001460002B0DD001221343094A094CD461CC
:10323000094C5C401462516293620021FFF7A2FFC7
:1032400010BD034B0022DA61F7E7C04600B005402D
:1032500000800540D3C007B02D3FF84F80239B006E
:103260000B43014AD36270470080054010B501004E
:1032700018231B8814221088984710BD10B5010030
:1032800018231B8816221088984710BDF0B5C64633
:1032900000B507000E0000250123984600E0013527
:1032A000B5420AD2AC003C192068FFF7DFFF20606E
:1032B0000028F4D100239846F1E7404680BCB84688
:1032C000F0BD000070B504000D000648FFF7CEFF0A
:1032D0000300002C03DB0120A040290098470020B8
:1032E000FBE7C04655420000074BAA2212011A60B4
:1032F0008D225200DA60054B054A1A60024B5B686A
:10330000002BFBDA7047C0460040024000600240DC
:1033100000B0FA0010B5040001E008CC9847024B59
:103320009C42FAD310BDC0462CAC0110704700007F
:1033300010B50248FFF7EEFF10BDC046F0AB01101C
:10334000054B064A1A60064B064A1A60064B1A6875
:10335000044B9343FAD1704700E00040BFCDFBFE21
:1033600000F00040FE7F3C0008C00040044BDB6CD6
:10337000002B03D1034B8022D2021A607047C04653
:10338000000011504C201150044B054A1A60054BA7
:103390001B68DB43DB01FAD17047C04600F00040F8
:1033A000FFFFFF0108C00040034B40229A675A67A5
:1033B0001A67DA667047C04600F0014010B5FEF7A4
:1033C000B5FD10BD10B50C4A0C4BD21A921014006A
:1033D000302A00D9302292000948084900F0CEFC7A
:1033E00004E0084A064BA100CA5001342F2CF8D93A
:1033F000034B054A936010BDC0010010000100108E
:1034000000000020C101001000ED00E070B50420B4
:10341000FFF716FE064900F0A9F805000024002C6D
:1034200000DD70BDE0B22900FFF718FF0134F6E7B8
:1034300040420F0030B583B0274B00229A67FFF758
:1034400053FF264B01221A60234B5B6C012BFBD1EF
:10345000234B03221A60204B9B6B012BFBD10133C2
:10346000009304331F4A01211F48FFF7EFFD052396
:1034700000931E4A01211E48FFF7E8FD1D4B002264
:1034800002210420FFF7D2FD1B4D2B000022012159
:103490000520FFF7CBFD194C230000220021072057
:1034A000FFF7C4FD2300002200210820FFF7BEFD26
:1034B0008023DB0000932300002200210920FFF776
:1034C000A1FD2B00002200210620FFF7AFFDFFF732
:1034D0009DFF03B030BDC046008000403CB00040BE
:1034E00030B00040002F685900800240008C8647B1
:1034F00000C00240001BB70040597307006CDC029B
:1035000001480421014B1847700C00208D32001037
:10351000014B9B6818470000700C0020124A936F03
:103520009B0815D29066D166002905D0FFE7FFE71A
:10353000FFE7516F106F704704B580210906C2176D
:103540005140002800D0C84317F012FB002104BDF1
:10355000F0B5146E556E576F166FFFF7E3FF1466E4
:10356000556657671667F0BD000000D0114A936F8B
:103570009B0813D210665166002905D0FFE7FFE7CC
:10358000FFE7516F106F704704B5002801D000208D
:10359000C04317F0EDFA002104BDC046F0B5146E2B
:1035A000556E576F166FFFF7E5FF14665566576740
:1035B0001667F0BD000000D094464A4A926F920808
:1035C000624601D228E0C046F0B5464E346E756EB4
:1035D000776F366F00F020F89446424A14665566BD
:1035E000576716676246F0BD94463E4A926F92084E
:1035F000624601D254E0C046F0B53A4E346E756E64
:10360000776F366F00F04CF89446364A146655666C
:10361000576716676246F0BD002B24DB11D00029E6
:103620003EDA00B5C943404200D1013100F038F81C
:10363000C943404200D10131DB43524200D1013342
:1036400000BD002AEBD1002801D1002905D00020BF
:10365000C90FC90701D1C043410800B517F080FA6E
:103660000022002300BD00B500290ADBDB435242E3
:1036700000D1013300F014F8C943404200D10131B8
:1036800000BDC943404200D10131DB43524200D169
:10369000013300F005F8DB43524200D1013300BD95
:1036A000002923D1002B18D1002A0CD0BC460D4F85
:1036B00038667A6600210023FFE7FFE7FFE77A6FAD
:1036C000386F67467047002801D00748010000B5F1
:1036D00017F046FA0022002300BD02000B00002074
:1036E00000217047000000D0FFFFFFFF002B00D03B
:1036F000BFE0130C28D1002AE7D080B4114F3966FF
:103700007A66FFE7FFE730B4040C7B6F396F1B0468
:1037100023433B667A66FFE7FFE7FFE7C04684B2D4
:103720007B6F3D6F1B0423433B667A66FFE7FFE731
:10373000C04600232C042D0C7A6F386F00196941A4
:10374000B0BC7047000000D0F0B594460025140EC0
:1037500001D112020835140F01D112010435940F62
:1037600001D192000235D40F01D152000135D40BA2
:103770000134254F7C66254C3C660E0C93B2FFE766
:10378000FFE7FFE73C6F6643360C7703BE467343A3
:10379000DF0B5B04C01AB941130C7343DB18C91A61
:1037A000CE086643360CB64493B273431F0F1B0119
:1037B000C01AB941130C73431F0B1B05C01AB94142
:1037C000860D8F023E436643360C092D24DB520AD8
:1037D0007243801A7703460A6643360C16235B1B36
:1037E000DE40DF40BF1964466643821B70460435E5
:1037F00006330100D940A840C01900D30131A242CC
:1038000006D20023F0BD0000000000D0FFFFFFFF44
:10381000121B0130F3D3F1E709277F1BFE406446FA
:10382000A2B27243801A00D20139220C7243130CE7
:103830001204821A99410B007046043513370100B7
:10384000F940A840801900D30131002B02D1A242D7
:103850000AD2F0BD013000D30131121BFAD2013B74
:10386000F8D1A24200D2F0BD013000D30131121BC9
:10387000F7E7F0B51C0C00D080E00CB400251C0A62
:1038800004D11B02160E3343120208351C0B04D15F
:103890001B01160F3343120104359C0B04D19B000E
:1038A000960F334392000235DC0B02D192185B4134
:1038B00001351C00971864410134464F7C66464C24
:1038C0003C660E0CFFE7FFE7FFE7C0463C6F664330
:1038D000360C7703BE4697B27743C01B00D201393E
:1038E000C01B00D201399FB27743C91BC91B170CFB
:1038F00077437E04FF0B801BB941CE086643360C2C
:103900000C2D33DBB644120B1F053A431B0B97B249
:103910007743C01B00D201399FB27743C91B170CF4
:1039200077433E043F0C801BB941860D8F023E4316
:10393000664329277F1BFE400C3D7746AF40BF19E9
:1039400030BCA2B2ABB272437343801A9941220CCD
:103950007243130C1204801A994102000B000137C4
:10396000001BA941F9D2781E0021F0BD0C277F1B56
:10397000FE4077467F0BAF40FF19E0E700245D1C57
:1039800007D0144F7D663966FFE7FFE7FFE7FFE7E3
:103990003C6F95B29EB265436643401BB141150C26
:1039A0001E0C6543664336042F0C3E432D04401B1A
:1039B000B141994204D202000B0020000021F0BD69
:1039C00001D19042F7D3801A994101349942F2D340
:1039D000F6E70000000000D0FFFFFFFF4840414035
:1039E000484018B4134B5B68019308BD18B4114BE1
:1039F0001B68019308BD94460F4A926F920805D246
:103A0000624618B40B4BDB68019308BD0A4AF0B557
:103A1000146E556E576F166F6246FFF7F2FF064A37
:103A20001466556657671667F0BD18B4014B9B685E
:103A3000019308BDD8EC0020000000D0FFB5504035
:103A40004240504059404B40594000E0FFB5154FAF
:103A50004C00640D03D0BC4204D10C0314D80020E8
:103A6000090D09055C00640D03D0BC4204D11C03A0
:103A70000AD800221B0D1B0501264B4009D44B40E0
:103A800003D58B4200D18242FFBD9942FCD19042C6
:103A9000FFBD0B43DB1803431343F5D0C94349185B
:103AA000FFBD0000FF07000000B5FFF7CFFF80411A
:103AB00000BDC04600B5FFF7C9FF01D9002000BD19
:103AC000012000BD00B5FFF7B9FF01D9002000BDFE
:103AD000012000BD00B5FFF7B1FF804100BD01200E
:103AE00040054A00121804D85A00121801D80020C4
:103AF00070470120704700000021002805D1704761
:103B0000C1174840401AFAD0C90713B5064B1B68C5
:103B100098470CBC441CA2401005120B0349091B1A
:103B200009051943114310BDDCED00201F040000FE
:103B300010B54C00620D8023D218DB00D21A5B0551
:103B40007E2A10DD9E3A13DACC170903490819437F
:103B50005242D140640001341532202A05DAD040A7
:103B60000843604310BD002010BD0846604310BDEF
:103B7000C80FC018013810BD18B4024B5B6A01931E
:103B800008BD0000D8EC002010B50148FEF718F978
:103B9000B0B9011070B513231C78012C12D0012C80
:103BA00012DC214B214A93642148FFF75FFB214B34
:103BB000186070BD20491D4A9800815001331F2BA9
:103BC000F8D9ECE70023FAE71C48FFF757FB05009C
:103BD0001B48FFF753FB023803789B007F2B09DD5E
:103BE00012488022290000F0C9F8022C08D0022CCB
:103BF000DADCD6E7134B144A1448332101F0DCF920
:103C0000134B1A88B5231B029A4209D1114B1A880B
:103C1000114B9A4204D1114B1A88114B9A42E6D0AB
:103C20000020FEF7CDF8C046653C0010D8EC00201F
:103C30004C330000DCED0020893B001053440000B1
:103C400053460000C8B90110A4FF01100CBA0110BE
:103C500054380000D8380000494600009C38000065
:103C60005946000007B56046002800D100BE018813
:103C70000A0A0230DF2AFAD1C9B2820804D30288C4
:103C800040880004104300E00068024A505003904E
:103C900007BD0000D8EC002051434343C9188C46AF
:103CA000110C83B24B4310B4040C614392B280B246
:103CB000504362431C041B0C001910BC59411304EF
:103CC000120CC018514161447047000010B5014802
:103CD000FEF776F8F4AD011070B513231E7818487E
:103CE000FFF7CCFA0500012E11D0012E09DDAB1E25
:103CF0001B789B007F2B1DDD12488022290000F0DD
:103D00003DF81148FFF7B2FA104B186070BD0D482E
:103D10005422290000F032F8002300E001331F2B69
:103D2000E3D8084A9C00A258002AF7D10849054A5E
:103D3000A150F3E7074B084A0848422101F03CF93B
:103D400053460000E0ED00204C330000DCED002085
:103D5000CD3C001064BA0110B8FF011098BA0110F0
:103D600001480421014B1847800C00208D320010BF
:103D7000014B1B6818470000800C0020014B5B685A
:103D800018470000800C00209A4200D288547047E7
:103D9000704710B5002802D00B684968984710BDDD
:103DA0000100002007E083001B185B00501C086026
:103DB0001078C01830380A681378303BDBB2092B12
:103DC000F1D97047F0B5DE4657464E464546E0B558
:103DD00083B093461F000C9B9A460D9C0E9B994600
:103DE0000F9B9B0717D0B8460F00060022E0551C1A
:103DF0004B4641462020B84701342A00B442F6D34E
:103E00003D004F465C46019B9B46B1464646B84640
:103E100037002E000EE00192A34688464E46B94672
:103E20000700EBE7013C551C5346185D434639003B
:103E3000B0472A00002CF5D135003E0047460F9BC5
:103E40009B0711D4100003B0F0BCBB46B246A94694
:103E5000A046F0BD541C4B4641462020B8472200E6
:103E6000531BB342F6D3EDE7B0464E46B9462F009A
:103E70005D46F5E7F0B5CE46474680B585B0944639
:103E800098460C9D0D9C0EAB1B789946109A119B81
:103E9000129EB7071CD4002B0CD0F7070AD54F464B
:103EA000002F02D10C37374204D0013B02E030270B
:103EB0002F550134944201D21F2CF8D9F70707D5AA
:103EC0009C4205D21F2C03D830272F550134F5E72B
:103ED000F70612D5770505D4002C03D0944221D0E3
:103EE0009C421FD00F9A102A2FD00F9A022A36D048
:103EF0001F2C0AD830222A5501341F2C05D84A46D7
:103F0000002A32D02D222A550134039602930194BF
:103F1000009543466246FFF755FF05B0C0BCB94661
:103F2000B046F0BD621E012C17D00F9F102F0BD092
:103F300014000F9A102AD8D1B206D6D51F2CD4D887
:103F400058222A550134D3E7023CB206F1D41F2C83
:103F5000EFD878222A550134CAE71400C2E71F2C93
:103F6000D3D860322A550134C2E7720703D52B2219
:103F70002A550134C9E73207C7D520222A55013412
:103F8000C3E7F0B5DE4657464E464546E0B593B02A
:103F900081468A46089209931CAB10CB1B789B463E
:103FA0001E9D219B9846002C03D1102342469A4324
:103FB00090468023DB0046461E4042461A4218D0F7
:103FC000002C22D0002614E0424692061BD5412147
:103FD000C918C9B20A39C9B2771C0AAB9955290068
:103FE0002000FFF7C3FAAC4210D31F2F0ED83E00BB
:103FF000040029002000FFF7B9FACBB2092BE3D85F
:104000003033D9B2E8E76121E2E72700434606935F
:10401000209B05931F9B049303955B460293019796
:104020000AAB0093099B089A51464846FFF722FFC6
:1040300013B0F0BCBB46B246A946A046F0BDF0B5F1
:10404000DE4657464E464546E0B597B00A900B917E
:104050000C929A46209B9946219F22AA13789B4650
:10406000249B0993259C289B98464A463A4302D1B3
:104070001032934398468022D2004546154043466D
:1040800013420AD04A463A4341D000252E005346F7
:104090000D934D46099B9A4621E02E0053460D9301
:1040A0004D46099B9A461AE04246920623D5412284
:1040B000D218D2B20A3AD2B2731C99460EAB9A55B4
:1040C0005246230028003900FFF78EFABC4220D860
:1040D00013D04B461F2B16D84E4605000F005246F4
:1040E000230028003900FFF77FFAD3B2092BDBD871
:1040F0003033DAB2E0E76122DAE7AA45E9D94E4681
:104100000D9B9A4608E04E460D9B9A4604E0002619
:1041100002E04E460D9B9A4643460693279B059325
:10412000269B0493099B03935B46029301960EAB77
:10413000009353460C9A0B990A98FFF79BFE17B011
:10414000F0BCBB46B246A946A046F0BDF0B5DE467F
:1041500057464E464546E0B591B0804689460C929A
:104160009A461A9C1B9D22002B0020002900FFF775
:10417000B6FC002800D0F2E001225242D54B2000CC
:104180002900FFF7A7FC002800D0E8E001225242F6
:10419000D14B20002900FFF787FC002800D0DEE08B
:1041A0000022002320002900FFF77EFC002800D019
:1041B000EAE0069407958023DB001E9A1A400D92D0
:1041C0001E9A1A4201D106231C93069807990200F1
:1041D0000B000892099303000A00024300D1DFE0BC
:1041E000080D4005400DBD4EB4466044079E3203A5
:1041F000120B1E00BA4B13431F00FFF781FCB94A94
:10420000B94BFFF712FCB94AB94BFFF7EFFB089027
:1042100009910022B74B30003900FFF7E2FBB64AA4
:10422000B64BFFF702FC02000B0008980999FFF754
:10423000DDFBFFF77DFC8346FFF762FC06000F0005
:10424000AF4AB04BFFF7F1FB0022AF4BFFF7CEFBBD
:10425000FFF76EFC0890AD4AAD4B30003900FFF718
:10426000E4FB06000F000898FFF74AFCA94AAA4B96
:10427000FFF7DBFB02000B0030003900FFF7B1FB5A
:1042800006000F0002000B00FFF7CFFB0A900B9116
:10429000089BA24A94466344002100220891099297
:1042A0001B0509930023089332003B0030003900BE
:1042B000FFF79CFB0E900F9132003B000020802105
:1042C000C905FFF78EFB06000F000022944B0A98E9
:1042D0000B99FFF790FB0022924BFFF787FB020040
:1042E0000B000A980B99FFF786FB00228E4BFFF715
:1042F0007DFB02000B000A980B99FFF77CFB020084
:104300000B0030003900FFF771FB02000B000E9824
:104310000F99FFF770FB0022714BFFF767FB089ABC
:10432000099BFFF782FB06000F0008960997069A83
:10433000079BFFF7CFFB00280BD001235B429C4675
:10434000E3440022774B30003900FFF754FB08901C
:1043500009915B466333C62B45D8042623E01E9B98
:1043600004931D9B03931C9B029300940195534659
:104370000C9A4946404600F0FBF811B0F0BCBB4631
:10438000B246A946A046F0BD002100220691079240
:10439000069480231B069C46AC44634607930AE7B9
:1043A00000239B4604261E9B1B0528D5089A099BC3
:1043B000190011430FD05D4A5D4B06980799FFF72E
:1043C00081FB00287AD000225A4B06980799FFF704
:1043D0006BFB002872D01C9B5B4506DD5A469B1A7E
:1043E000013B1C9303E00526DDE700231C9380239B
:1043F000DB001E9A1A431E92002600239B461D9B3B
:104400009E4265D29F1B02231E9A1A400A921E9A50
:10441000134202D0002E00D000275B46002B07D0AD
:10442000089A099B06980799FFF7E5FA0690079105
:104430000022002320002900FFF736FB002800D0CF
:104440007CE03D4B1E9A1340049303971C9B029300
:10445000069B079C0093019453460C9A494640469C
:1044600000F086F8002E00D187E71E9B9B0671D5D1
:104470004525441C5346020049462800C0475A4679
:10448000D317D2185A4005230593013E0496002302
:1044900003930A3302935B46DB0F0193009253466A
:1044A000220049464046FFF76CFD0A9B002B00D1D5
:1044B00063E7020047460C9E1D9D53E01C9B002BAA
:1044C0009DD00D9B002B9AD01C9B013B1C9396E723
:1044D000002798E7FFFFEF7FFFFFEFFF01FCFFFFE3
:1044E0000000F03FFB799F501344D33FB3C8608B6B
:1044F000288AC63F0000F83F61436F63A787D23F19
:1045000071A379094F930A400000E03F1655B5BBEF
:10451000B16B0240EF39FAFE422EE63FFF03000086
:1045200000002C4000002440000018402D431CEBEC
:10453000E2361A3F80842E41FFF7FFFF069C079D5D
:104540002200290080200006844661440B00069268
:10455000079376E765258CE7541C5346494620208F
:10456000B8472200931BAB42F6D3100005E7C046C4
:10457000F0B5DE4657464E464546E0B595B0069046
:10458000079193469946209F1E9A1F9B1000190081
:10459000FFF7A5FA002831D101225242BC4B1E98E8
:1045A0001F99FFF781FA002837D101225242B94BF7
:1045B0001E981F99FFF78EFA00283DD10022B64BB6
:1045C0001E981F99FFF786FA00284AD10022B34BA4
:1045D0001E981F99FFF768FA002842D10022002395
:1045E0001E981F99FFF760FA00284AD100239846C9
:1045F000229B5B0500D4B0E0002452E0229B039391
:10460000219B029303230193A54B00934B465A46EB
:1046100007990698FFF7D6FB08E1229B0393219B9D
:104620000293042301939F4B00934B465A460799EC
:104630000698FFF7C7FBF9E0229B5B070ED59A4B64
:1046400004222299039121990291019200934B46F1
:104650005A4607990698FFF7B5FBE7E0934B03220C
:10466000EFE7229B0493219B039302971E9B1F9CC1
:10467000009301944B465A4607990698FFF766FD4A
:10468000D4E01E9A1F9B00200021FFF7AAF91E907C
:104690001F9101239846ABE70CAB30221A55013F1E
:1046A00001341F2C01D8092FF6D81E981F99FFF747
:1046B0003FFA0500FFF724FA02000B001E981F992D
:1046C000FFF78FF97A4BFA009B181A685B680A9219
:1046D0000B93FFF7AAF908900991FFF74DFA06002E
:1046E000FFF70AFA02000B0008980999FFF779F919
:1046F0000890099100226F4BFFF7ECF900282ED0AB
:1047000001363000FFF7F8F902000B000A980B9908
:10471000FFF7D0F9002801D001350026002F2CD159
:104720002800FFF7EDF902000B001E981F99FFF714
:1047300058F906000F0000225E4BFFF7B5F900287C
:1047400046D100225B4B30003900FFF7C3F9002847
:104750003ED1EB073CD501353AE006274CE7002275
:10476000544B08980999FFF79FF90028D6D1002EDD
:1047700001D0F307D2D50136D0E7AA461F2C11D8B5
:10478000013F0A213000FEF7F1FE651C30310CAB11
:1047900019550A213000FEF7E9FE092E0ED9060050
:1047A0002C00EBE755461F2C0CD87B1E002F09D0A0
:1047B0000CAA302111551F000134F4E72B00554697
:1047C0001C00F0E71F2C03D80CAB2E221A55013425
:1047D0001F2C10D80A212800FEF7A0FE661C3031DD
:1047E0000CAB19550A212800FEF798FE051E01D0D2
:1047F0003400EDE734000323229A1340012B1CD030
:104800001F2C06D84346002B32D00CAB2D221A5554
:104810000134229B0393219B029301940CAB0093E0
:104820004B465A4607990698FFF7CCFA15B0F0BCEC
:10483000BB46B246A946A046F0BD219B002B13D033
:104840004346002B02D10C3313420FD0219B013B76
:104850002193190003E00CAB30221A5501348C422D
:10486000CED21F2CF7D9CBE72199F8E72199F6E7AB
:10487000229B5B0704D50CAB2B221A550134C8E7E9
:10488000229B1B07C5D50CAB20221A550134C0E76B
:10489000FFFFEFFFFFFFEF7F65CDCD4165CDCDC1C0
:1048A0003CBB011040BB011030BB011038BB0110F4
:1048B000C80102100000E03FF0B5DE4657464E4604
:1048C0004546E0B593B007008A4693461193002908
:1048D00000D12CE3002508E06C1C5B462A00514601
:1048E000B847119B013311932500119B18780028BC
:1048F00000D11EE32528EFD10133119300231800C6
:1049000020E00123184301321192012418E0022310
:10491000184301321192012412E00423184301329A
:10492000119201240CE00823184301321192012452
:1049300006E01023184301321192012400E0002404
:10494000002C09D0119A1378203BD9B21029F6D83F
:104950008B00C449CB589F468146119B1A7813009F
:10496000303BDBB2092B10D92A2A13D00B94119BB0
:104970001A782E2A20D0119A1378683BD9B21229BE
:1049800065D88B00B849CB589F4611A8FFF708FAA5
:104990000B90ECE71C9B1A1D1C921B68002B04DB80
:1049A0000B93119B01331193E1E7022201001143A4
:1049B00089465B420B93F4E78022D20049461143BB
:1049C00089465A1C11925A781300303BDBB2092BEE
:1049D0000BD92A2ACFD11C9B1A1D1C921C68002CB3
:1049E00008DB119B01331193C5E711A8FFF7D8F934
:1049F0000400C0E70024F4E780235B0049460B4332
:104A0000511C119151786C2901D099461FE0C023A7
:104A10009B004946194389460232119217E08023D0
:104A200049460B43511C11915178682901D0994690
:104A30000DE0C0234946194389460232119206E02F
:104A400080235B0049461943894601321192119B2C
:104A5000187867281CD8252800D25EE20300253B81
:104A6000DAB2422A00D958E29300804AD3589F46CE
:104A700080239B0049461943894601321192E6E79B
:104A800080235B0049461943894601321192DEE7D3
:104A9000782800D941E2692800D23EE20200693A52
:104AA000D2B201239340724A134210D11A0600D5A4
:104AB0000CE25B0500D430E21C9B1A1D1C921E68A0
:104AC000002C00D0BAE101225242330096E16F2857
:104AD00042D005D8582841D0622803D1022606E0EA
:104AE00078283DD010234A469A4391460A265828F2
:104AF00038D0692805D0642803D00C224B46934354
:104B000099464B465A0502D5012293439946692896
:104B10002DD064282BD04B469A0500D5AAE0DA05A3
:104B200000D5C2E05A0600D4D3E01C9A111D1C9196
:104B30001168FF220A404B4605930B9B0493039494
:104B400002960023019300925B462A0051463800EA
:104B5000FFF717FA05002AE00826C8E71026C6E77F
:104B60001026C4E720224B4613439946C1E74B4623
:104B70009A0520D4DA0551D45A0666D51C9A111D1F
:104B80001C911168FF220A40D017111841404B4672
:104B900005930B9B049303940296D20F019200910C
:104BA0005B462A0051463800FFF7EBF90500119BE0
:104BB0000133119399E61C9A073207218A431100A9
:104BC00008311C91116853689C46DB170C930D93B8
:104BD0000C9A0D9B100048400E900D9B61464B4077
:104BE0000F930E980F990C9A0D9B801A99410E9075
:104BF0000F914B4608930B9B079306940496002352
:104C000005936346DA0F0292009001915B462A00F9
:104C100051463800FFF713FA0500C8E71C9A111D2A
:104C20001C911268D0171118414005930B9B0493F7
:104C300003940296D20F019200915B462A005146DE
:104C40003800FFF79EF90500B1E71A0605D51C9A52
:104C5000111D1C910023D25E96E71C9A111D1C9118
:104C6000126891E72C00021070000210BC000210C4
:104C7000419000001C9A073207218A431100083135
:104C80001C9108930B9B07930694049600230593AD
:104C9000029353681268009201935B462A005146C2
:104CA0003800FFF7CCF9050081E71C9A111D1C9113
:104CB00005930B9B049303940296002301931368BE
:104CC00000935B462A0051463800FFF75AF9050069
:104CD0006DE71A0606D51C9A111D1C911268120464
:104CE000120C28E71C9A111D1C91126823E7462814
:104CF0001AD01C9B0733072293431A0008321C92D8
:104D00004A4604920B9A039202941A685B680092D6
:104D100001935B462A0051463800FFF729FC050045
:104D2000119B01331193E0E520234A461A43914633
:104D3000DFE7672801D0472804D180231B014A46BA
:104D40001A439146452801D0472803D120234A46DB
:104D50001A4391461C9B0733072293431A000832DB
:104D60001C924A4604920B9A039202941A685B685A
:104D7000009201935B462A0051463800FFF7E6F99E
:104D80000500119B01331193AFE502234E461E40EF
:104D90004A4613421ED001241C9B1A1D1C926A1CF9
:104DA000904618785B462A005146B847002E14D129
:104DB000119B01331193454697E5551C5B465146BF
:104DC0002020B84723002A005C1C0B999942F4D894
:104DD0001500E1E701232A00F6E7424606E0561CEB
:104DE0005B4651462020B8472C003200651C0B9BC7
:104DF000A342F4D89046DBE701330A001978002972
:104E000002D0511E002AF7D19B1B8022D2004946B6
:104E1000114088464946114202D0A34200D92300DE
:104E2000022249461140109149460A4208D02A0000
:104E3000250099463B004746984626E0220044E676
:104E4000A1462A005146B2460E0006E0551C5B46BC
:104E500031002020B84723002A005C1C0B9999429E
:104E6000F4D8150022004C46330056469A46914627
:104E70002A0025003B004746984606E01D00013603
:104E8000541C5B465146C04722003078002804D0AD
:104E9000002FF4D06B1E002DF0D115004B46474675
:104EA000109A002A03D1119B013311931DE50B9E2B
:104EB0002A0006E0551C5B4651462020B8472300D7
:104EC0002A005C1C9E42F5D81500ECE721234A46D7
:104ED0001A4313001C9A111D1C9112680593082394
:104EE00004930394083302930023019300925B46DA
:104EF0002A0051463800FFF744F80500119B0133A2
:104F00001193F2E46C1C5B462A0051462520B847F9
:104F1000119B013311932500E7E46C1C5B462A00CA
:104F20005146B847119B013311932500DDE40A4F28
:104F3000D0E45D450DD35B465A1E5B4651460020CA
:104F4000B847280013B0F0BCBB46B246A946A046FD
:104F5000F0BD2A00F1E7C046913D00100EB430B517
:104F600084B0010007AC08CC03940122054D0094E5
:104F700052422800FFF7A0FC04B030BC08BC03B0CC
:104F80001847C046893D001010B584B00C0002A936
:104F900002904C6001240448009313006242FFF722
:104FA0008BFC04B010BDC046933D001000BEFDE771
:104FB00010B5FFF7FBFF000030B583B00D001900FE
:104FC000002A0BD0074B084C019200932B000200E3
:104FD000200000F061F90120FFF7E8FF034B1A0001
:104FE000F1E7C04648BB011058BB0110F4AD0110F9
:104FF00010B5EFF30583002B00D000BEFEF798F943
:10500000034C01E008CC9847024B9C42FAD310BDF8
:105010002CAC011038AC011010B5030008001100D1
:105020001B68984710BD0000F8B507000D0016007A
:10503000437D002B02D0002400200CE00368110007
:10504000280098472DE03B7D10E03B681548022181
:105050009847601C0134B44214DA002CF3DD2B199C
:10506000013B1B780D3B5A425341DBB22A5D0A2AB1
:10507000F0D1002BEED1A042E7DA3B68211A2818C4
:105080009847E2E7B04203DA3B68311A281898479C
:10509000002E06DDAD19013D2B780D3B5A425341E0
:1050A0003B75F8BD1802021070B505000368002BAF
:1050B00016D00C4B1C6805E0290004C92000FFF73E
:1050C000B3FF2469002C09D02368002BF9D0064BCC
:1050D0001B68002BF0D0A342F3D1EDE700232B6037
:1050E00070BDC046842500208C25002070B50500C9
:1050F0000C000B68802B05D023685A1C2260E41832
:10510000257170BD0800FFF7CFFFF5E710B5FDF77B
:1051100005FF074A002312184B41002B03DB05480B
:1051200015F046FD10BD01225242034BF7E7C04681
:1051300040420F00180D0020FFFFFF7F10B502480E
:1051400015F006FD10BDC046180D0020F0B5CE4686
:10515000474680B583B006000D0090461C00FFF75F
:10516000D5FF81466B1C05D0002C08D0184F194B79
:105170001C6807E0300015F02FFC0500F4E7164F1F
:10518000F5E72469002C17D02368002BF9D0134BC6
:105190001B68002B01D0A342F3D12A00310020006C
:1051A000B8474346002BECD06B46D91D0A230B7041
:1051B00001222000B847E4E74B46002B05D1280028
:1051C00003B0C0BCB946B046F0BDFFF7B7FFF6E785
:1051D0002950001084250020195000108C25002033
:1051E0000A4A136802E01A0010321B69002B09D02A
:1051F00013688342F7D1002907D1036913600023A4
:10520000036102E0002900D010607047842500206F
:1052100010B5064B1C6800E02469002C04D06368BC
:10522000002BF9D09847F7E710BDC0468425002031
:1052300010B500F0C7F910BD70B5050015F0CCFB36
:1052400004000123012201002800FFF77FFFFFF780
:10525000DFFF200070BD0000F0B5A3B004000E0019
:10526000FFF754FF050001AF002301930948330005
:1052700022003900FFF788FE04003800FFF714FF12
:10528000FFF7C6FF002D02D1200023B0F0BDFFF7CD
:1052900055FFF9E7ED5000100FB400B583B004A935
:1052A00001C90191FFF7D8FF03B008BC04B018474B
:1052B00070470000014B00221A70704790F00220E6
:1052C0004B79FF2B0CD18B79002B0BD1CB79012B98
:1052D0000AD1082A0AD98A78054B1A70092000E0F9
:1052E000002070470020FCE70020FAE70020F8E7E4
:1052F00090F002200120704710B5012927D11179C3
:1053000053791B020B43134909788B4201D00020CB
:105310001EE05378012B03D0022B11D0002017E0A0
:105320009178D3781B021943DB0506D5480A8A0514
:10533000D20F7F231940FDF7C5FF01204042F6E759
:10534000642200210020FDF765FF012000E001201C
:1053500010BDC04690F0022000487047E4020210E1
:1053600010B51400012910D15378012B0FD11279F7
:1053700063791B021343072B01D0002006E0054A86
:105380009F33210001F05CFB00E0012010BD0020F4
:10539000FCE7C0463C02021001230370004870473E
:1053A0001C02021010B50A784B781B0213438A784E
:1053B00012041A43CB781B0613439622D200934261
:1053C00000D010BD0120002211004042FDF77AFFFD
:1053D000024B1860024B19607047C0469C160020B3
:1053E000A016002010B5FDF799FD0E4A00231218F3
:1053F0004B41002B12DB0C4815F0DAFB00280CD0D7
:1054000001200021404201F0E1F9002001F080FC80
:105410000028F5D1044815F09BFB10BD0122524233
:10542000024BE8E740420F00E4EE0020FFFFFF7F61
:1054300010B5024B1878FCF72FFE10BD91F002203A
:1054400070B5174B1B68002B20D0EFF3108272B69B
:10545000100019680029FCD0BFF35F8F10494A6023
:10546000104B00221A700B68BFF35F8F1A6080F335
:105470001088002400250C4B1878FCF7E9FD002863
:1054800008D1002400252000290070BDFA24A400C2
:105490000025F0E7044B1878FCF7FEFDF3E7C04663
:1054A000E8C9002093F0022091F00220F0B585B009
:1054B000060014001D000CAB1F78FDF72FFD220025
:1054C0002B0012184B41002B09DB02970B9901911D
:1054D0000A9900913000FDF769FB05B0F0BD01228B
:1054E0005242014BF1E7C046FFFFFF7FF0B5C646D1
:1054F00000B584B00500884616001F000AAB1C7872
:10550000FDF7ECFA0294019700962A004346FFF754
:10551000CDFF04B080BCB846F0BD000010B582B02D
:105520002248002115F02CFB00281ED1204B1B68BF
:10553000002B18D0EFF3108172B608001A68002A09
:10554000FCD0BFF35F8F1A4A51601A490B78DBB267
:1055500001240C701268BFF35F8F0021116080F38B
:105560001088002B17D002B010BD0120002140424E
:1055700001F02CF9002001F0A3FB04000B4815F00A
:10558000E7FA002CEFD00C4B1B68002BEBD00B4A3A
:1055900010689847E7E70A4A013300930023FA208E
:1055A00080000021FFF7A2FFDDE7C046E4EE002007
:1055B000E8C9002093F002209C160020A0160020CD
:1055C0004154001010B582B0D0231B061C68FDF7B3
:1055D00085FAFDF765FBA04230D1274B1B780021EF
:1055E000002002F057F8254B1B68002B2CD001201F
:1055F000FDF70AF8224C20702249FF231840FCF7DF
:1056000079FD20780121FCF73DFD0520FCF754FDD4
:10561000041E1DD00120FCF777FC01001A4B180076
:10562000FDF754F8194900220520FCF78DFD1848B4
:105630000121FFF7D5FD200002B010BD154B164A21
:105640001648C621FFF7B8FC0C48FCF7FBFFCEE775
:105650000D4808220021FEF78BFB114A012300931D
:105660000023FA2080000021FFF740FFC043C40F51
:105670000028E0DADBE7C04688880510E4EE002069
:1056800091F002201D550010E8C90020315400108F
:10569000900C00207CB601101403021088BB01108E
:1056A0004154001010B5002001F0EEFA10BD0000CA
:1056B00070B505000C00FFF7F5FF002834D000207E
:1056C00001F0FEFA002832D0FDF728FC1B4A002327
:1056D00012184B41002B19DB194815F069FA002804
:1056E00028D0FFF7DFFF002804D0002001F0E8FAFF
:1056F00000280FD101200021404201F067F8032467
:1057000064420F4815F024FA200070BD0122524275
:105710000C4BE1E722002900002001F0DDFA041E15
:10572000EFD103246442ECE703246442ECE7032452
:105730006442E9E703246442E6E7C04640420F00C2
:10574000E4EE0020FFFFFF7FF0B5C64600B58046BF
:105750000C00FDF7E3FB314A002312184B41002BEC
:1057600007DB2F4815F024FA002806D180BCB84684
:10577000F0BD012252422B4BF3E7FFF793FF0028C5
:1057800049D1294B0020002118605960244815F0A8
:10579000DFF9EBE701200021404201F017F800207B
:1057A00001F0B6FAFFF77EFF0028EFD0002001F0ED
:1057B0002BFB002820D0A542E8DA661B002001F070
:1057C00023FB0200864200DC3200002AE2D043467E
:1057D0005919002001F0F4FA06000120002140428E
:1057E00000F0F4FF002001F093FAAD19FDF796FBED
:1057F0000D4B18605960DEE7FDF790FB0A4B1E6801
:105800005F680A4A002392197B419942BED8D2D1DF
:105810009042D0D9BAE70025CDE7C04640420F00FC
:10582000E4EE0020FFFFFF7FD80E002020A107003C
:105830000048704790030210004870473C03021074
:1058400010B50400154B1B78002B0ED0002C11D185
:10585000134B144A5A80012301335B009BB210485A
:10586000C02292001343038010BD0C48112100F0A8
:105870002DF8EBE7052C0ED80B4BA400E4580023C1
:10588000122BE9D8E15C0029E6D00133044A580024
:105890008152DBB2F4E70020E6E7C04628EF0220A1
:1058A0009C200020090400002403021010B50248C7
:1058B00000F038F810BDC046D0EC002010B5024909
:1058C0000822FEF75BFA10BDD0EC002010B50029CD
:1058D00001D0002308E00F4B0F4A10483B31FFF77F
:1058E0006BFB3732C25401334A1E9A420ED90F2B3A
:1058F0000CD85A080A4CA45C01229A439200144125
:105900000F222240092AECDC3032EBE7C0180023DA
:10591000037010BD18BC0110A403021020BC0110BC
:10592000D0EC002070B588B0040004AD0D22002139
:105930002800FEF71DFA0D2200216846FEF718FA2E
:105940004B232B700D226946280015F0F9F800232F
:1059500004E05A1D69468A5CE2540133072BF8DDE6
:1059600008B070BD70B582B07F230340C509274CD5
:105970005E0076197601A419A070684268416070D3
:105980000020E0702183E276012D1ED0D800204A4D
:10599000944660441D4A59004919490152189060C3
:1059A0001A4A590049194901521892680021116098
:1059B000002B10D1154A5B005B195B01D318002244
:1059C0005A60144ADA6002B070BDD800124A944698
:1059D0006044A060E4E7012D0BD0591EC9000F4AB6
:1059E00094466144094A5B005B195B01D21851601F
:1059F000E9E7591EC9000A4A94466144034A5B001C
:105A00005B195B01D2185160DDE7C046902500208C
:105A10008400105000011050800010500C001050F5
:105A20000800105010B5038B3F333F229343C27ED2
:105A3000022A08D008490A68C260D3180B60074AD6
:105A4000934202D810BD5B00F4E7054B054A0648B7
:105A50005221FFF7B1FAC046C8C90020FF0F10500D
:105A600078BE011004040210BCBE0110F8B57F25F9
:105A70000540C6096B009B195B010E4C1C19FFF712
:105A800071FF002D00D1F8BD0A4B6D00AD196D01FD
:105A90005D19298B2000FFF7C5FFEB7E9B06E968A7
:105AA000054A4A4013438022120613436A68136072
:105AB000E9E7C046902500200000105010B5040012
:105AC0007F202040E409400000194001024BC0182B
:105AD00000F026F910BDC0469025002010B5002822
